:020000040800F2
:1000000000800120111F00080508000807080008EB
:10001000090800080B0800080D080008000000008F
:100020000000000000000000000000000F080008B1
:100030001108000800000000130800081508000857
:10004000611F0008611F0008611F0008611F000890
:10005000611F0008611F0008611F0008611F000880
:10006000611F0008611F0008611F0008611F000870
:10007000611F0008611F0008611F0008611F000860
:10008000611F0008611F0008611F000800000000D8
:10009000000000000000000000000000611F0008D8
:1000A000611F0008611F0008611F0008611F000830
:1000B000611F0008611F0008611F0008611F000820
:1000C000611F0008611F0008611F0008611F000810
:1000D000611F0008611F00081908000800000000E7
:1000E000611F0008611F0008611F00080000000078
:1000F000000000000000000000000000611F000878
:1001000000000000611F000829080008611F0008A6
:1001100000000000000000000000000000000000DF
:10012000611F0008611F0008611F0008611F0008AF
:10013000611F000800000000000000000000000037
:10014000000000000000000000000000611F000827
:10015000611F0008611F0008611F0008611F00087F
:10016000611F0008611F000800000000000000007F
:10017000000000000000000000000000000000007F
:1001800000000000611F00080000000000000000E7
:04019000611F0008E3
:1001940010B5054C237833B9044B13B10448AFF3BD
:1001A40000800123237010BD2800002000000000FF
:1001B400BC1F000808B5034B1BB103490348AFF348
:1001C400008008BD000000002C000020BC1F0008B7
:1001D40053B94AB9002908BF00281CBF4FF0FF31AA
:1001E4004FF0FF3000F074B9ADF1080C6DE904CEA6
:1001F40000F006F8DDF804E0DDE9022304B07047FE
:100204002DE9F047089D04468E46002B4DD18A42C5
:10021400944669D9B2FA82F252B101FA02F3C2F1F8
:10022400200120FA01F10CFA02FC41EA030E944089
:100234004FEA1C48210CBEFBF8F61FFA8CF708FBAA
:1002440016E341EA034306FB07F199420AD91CEB82
:10025400030306F1FF3080F01F81994240F21C81B4
:10026400023E63445B1AA4B2B3FBF8F008FB1033FC
:1002740044EA034400FB07F7A7420AD91CEB040431
:1002840000F1FF3380F00A81A74240F20781644401
:10029400023840EA0640E41B00261DB1D440002386
:1002A400C5E900433146BDE8F0878B4209D9002DEA
:1002B40000F0EF800026C5E9000130463146BDE874
:1002C400F087B3FA83F6002E4AD18B4202D38242DE
:1002D40000F2F980841A61EB030301209E46002D8D
:1002E400E0D0C5E9004EDDE702B9FFDEB2FA82F2E2
:1002F400002A40F09280A1EB0C014FEA1C471FFA40
:100304008CFE0126200CB1FBF7F307FB131140EA26
:1003140001410EFB03F0884208D91CEB010103F1F3
:10032400FF3802D2884200F2CB804346091AA4B2B5
:10033400B1FBF7F007FB101144EA01440EFB00FE89
:10034400A64508D91CEB040400F1FF3102D2A645EE
:1003540000F2BB800846A4EB0E0440EA03409CE78D
:10036400C6F12007B34022FA07FC4CEA030C20FA3A
:1003740007F401FA06F31C43F9404FEA1C4900FA5A
:1003840006F3B1FBF9F8200C1FFA8CFE09FB1811D7
:1003940040EA014108FB0EF0884202FA06F20BD94A
:1003A4001CEB010108F1FF3A80F08880884240F29A
:1003B4008580A8F102086144091AA4B2B1FBF9F0DE
:1003C40009FB101144EA014100FB0EFE8E4508D9D9
:1003D4001CEB010100F1FF346CD28E456AD902385E
:1003E400614440EA0840A0FB0294A1EB0E01A14243
:1003F400C846A64656D353D05DB1B3EB080261EBB1
:100404000E0101FA07F722FA06F3F1401F43C5E98A
:10041400007100263146BDE8F087C2F12003D840C0
:100424000CFA02FC21FA03F3914001434FEA1C4702
:100434001FFA8CFEB3FBF7F007FB10360B0C43EAF4
:10044400064300FB0EF69E4204FA02F408D91CEBA4
:10045400030300F1FF382FD29E422DD902386344A2
:100464009B1B89B2B3FBF7F607FB163341EA034142
:1004740006FB0EF38B4208D91CEB010106F1FF3891
:1004840016D28B4214D9023E6144C91A46EA004688
:1004940038E72E46284605E70646E3E61846F8E61A
:1004A4004B45A9D2B9EB020864EB0C0E0138A3E763
:1004B4004646EAE7204694E74046D1E7D0467BE744
:1004C400023B614432E7304609E76444023842E7BC
:1004D400704700BF08B50268044B9A4200D008BDBB
:1004E4001D220349034801F01BFBF8E700440040C8
:1004F400000000206400002008B50268034B9A4203
:1005040000D008BD01F05AF8FBE700BF000C004022
:1005140072B6FEE700B595B03022002108A801F0BC
:1005240043FD0023039304930593069307930193D8
:100534001A4A116C41F080511164126C02F080521D
:100544000192019A029316490A6822F4404242F445
:1005540000420A600A6802F440420292029A0A22A5
:10056400089201220B9210210C910D920E9308A86F
:1005740000F06EFA68B90F230393002104910591EA
:100584000691079103A800F0B1FC20B915B05DF8FD
:1005940004FBFFF7BDFFFFF7BBFF00BF00380240BD
:1005A4000070004008B500F0EFFFFFF7B3FF00F064
:1005B40017F800F091F800F0CBF80122302106483A
:1005C40001F0AEFA2021054800F020FF4FF4FA7044
:1005D40001F006F8F6E700BF6400002000000240C6
:1005E40070B58AB00024059406940794089409947D
:1005F4000094344B1A6B42F004021A631A6B02F033
:1006040004020092009A01941A6B42F080021A6369
:100614001A6B02F080020192019A02941A6B42F062
:1006240001021A631A6B02F001020292029A039405
:100634001A6B42F002021A631A6B02F0020203926E
:10064400039A04941A6B42F008021A631B6B03F0BA
:1006540008030493049B1C4E22462021304600F0DC
:10066400CFFE4FF6FF73059303250695079405A95E
:10067400164800F0E5FD49F6D373059306950794F3
:1006840005A9304600F0DCFD2023059301230693E1
:100694000794089405A9304600F0D2FD4FF2FF7389
:1006A40005930695079405A9094800F0C9FD04239C
:1006B40005930695079405A9064800F0C1FD0AB004
:1006C40070BD00BF00380240000002400008024034
:1006D40000040240000C024008B50948094B0360BD
:1006E400002343607F228260FF22C2600361436172
:1006F400836100F05FF900B908BDFFF709FFFBE76C
:10070400440000200028004000B587B00023019376
:10071400029303930493059302680B4B9A4202D00D
:1007240007B05DF804FB022301934FF400730493B4
:1007340001A800F0CFFC20B9044B0122C3F83C2EE1
:10074400EEE7FFF7E5FEF7E7002800400000474228
:1007540008B50A480A4B03604FF4E13343600023B1
:100764008360C36003610C2242618361C36101F051
:10077400A7F900B908BDFFF7CBFEFBE76400002032
:100784000044004010B588B00023039304930593FC
:10079400069307930268184B9A4201D008B010BD23
:1007A4000024019403F5FA331A6C42F400321A64FB
:1007B4001A6C02F400320192019A02941A6B42F00C
:1007C40001021A631B6B03F001030293029B0C23C7
:1007D400039302230493032306930723079303A994
:1007E400064800F02DFD22462146262000F086FE14
:1007F400262000F0BBFED1E7004400400000024088
:10080400FEE7FEE7FEE7FEE7FEE770477047704746
:100814007047000008B5024801F02AFA08BD00BF7D
:100824006400002008B5024800F030FF08BD00BF96
:10083400AC00002082B0002100910B4B5A6C42F4B2
:1008440080425A645A6C02F480420092009A0191E8
:100854001A6C42F080521A641B6C03F080530193AB
:10086400019B02B0704700BF0038024030B589B028
:10087400044600230193214B1A6C42F008021A64C7
:100884001B6C03F008030193019B02A903A800F069
:1008940003FC069BCBB900F0DFFB03461848A0FB22
:1008A40003239B0C013B1748174A026040F2E732CE
:1008B400C2604360002303618360836100F0ECFF46
:1008C400054630B1284609B030BD00F0C5FB4300F1
:1008D400E4E70C4800F09AFE05460028F2D13220E5
:1008E40000F044FE0F2C01D90125EBE7002221463C
:1008F400322000F003FE054B1C60E3E700380240A1
:1009040083DE1B43AC000020000C004020000020CC
:1009140038B5044603680A4ADA6000F05BFE05460F
:100924002368DB6813F0200F07D100F053FE401B4F
:10093400B0F57A7FF4D9032000E0002038BD00BF71
:100944005F3F010070B50368DA6812F0400F02D00F
:100954000025284670BD0446DA6842F08002DA6059
:1009640000F038FE064600252368DB6813F0400FCC
:10097400EFD1002DEDD100F02DFE831BB3F57A7F6E
:10098400F2D9042363770125EEE70268D36823F0E4
:100994008003D36003689B6813F0200F01D000200C
:1009A400704710B50446FFF7B3FF10B10423637713
:1009B400012010BD002849D010B50446437F53B12F
:1009C400022363772368DA6812F0100F07D000203F
:1009D4000123637710BD0377FFF796FEF0E7CA2281
:1009E4005A62236853225A622046FFF7ABFF80B154
:1009F40048B92268136C23F4802313642268136CAF
:100A0400A1690B4313642368FF225A620028E1D1D1
:100A1400DEE72268936823F4E00323F04003936045
:100A240021688A6863682069034360690343134348
:100A34008B602368E2681A6122681369A16843EA3B
:100A4400014313612046FFF7A0FFD1E7012070475F
:100A5400002800F0E08170B582B00446036813F00A
:100A6400010F3BD09F4B9B6803F00C03042B2CD04D
:100A74009C4B9B6803F00C03082B21D06368B3F5EF
:100A8400803F4FD0B3F5A02F52D0964B1A6822F472
:100A940080321A601A6822F480221A606368002B7C
:100AA40050D000F097FD05468E4B1B6813F4003FB1
:100AB40014D100F08FFD401B6428F5D90320B1E167
:100AC400884B5B6813F4800FD8D0864B1B6813F4F3
:100AD400003F03D06368002B00F09F81236813F06C
:100AE400020F54D07F4B9B6813F00C0F3ED07D4B0C
:100AF4009B6803F00C03082B33D0E368002B68D009
:100B0400794B01221A6000F065FD0546754B1B68A0
:100B140013F0020F54D100F05DFD401B0228F5D9FB
:100B240003207FE16F4A136843F480331360B5E711
:100B34006C4B1A6842F480221A601A6842F48032BC
:100B44001A60ABE700F046FD0546664B1B6813F4DC
:100B5400003FC3D000F03EFD401B6428F5D90320BC
:100B640060E1604B5B6813F4800FC6D15D4B1B687A
:100B740013F0020F03D0E368012B40F05081594A6F
:100B8400136823F0F803216943EAC103136023685F
:100B940013F0080F42D063696BB3534B0122C3F8BF
:100BA400802E00F017FD05464E4B5B6F13F0020FCD
:100BB40034D100F00FFD401B0228F5D9032031E1A8
:100BC400484A136823F0F803216943EAC103136018
:100BD400DDE7454B00221A6000F0FCFC0546414B62
:100BE4001B6813F0020FD2D000F0F4FC401B022863
:100BF400F5D9032016E13C4B0022C3F8802E00F007
:100C0400E9FC0546374B5B6F13F0020F06D000F08A
:100C1400E1FC401B0228F5D9032003E1236813F00B
:100C2400040F77D02F4B1B6C13F0805F33D100235C
:100C340001932C4B1A6C42F080521A641B6C03F023
:100C440080530193019B0125284B1B6813F4807F7B
:100C540023D0A368012B34D0052B38D0214B1A6F35
:100C640022F001021A671A6F22F004021A67A368BD
:100C7400002B3DD000F0AEFC06461A4B1B6F13F060
:100C8400020F46D100F0A6FC801B41F28833984243
:100C9400F3D90320C6E00025D6E7144A136843F4C9
:100CA4008073136000F096FC0646104B1B6813F427
:100CB400807FCED100F08EFC801B0228F5D9032062
:100CC400B0E0084A136F43F001031367CFE7054B05
:100CD4001A6F42F004021A671A6F42F001021A678F
:100CE400C5E700BF003802400000474200700040E2
:100CF40000F070FC0646524B1B6F13F0020F08D035
:100D040000F068FC801B41F288339842F3D9032039
:100D140088E0EDB9A369002B00F08380484A92680B
:100D240002F00C02082A51D0022B17D0454B0022A6
:100D34001A6600F04FFC0446414B1B6813F0007F19
:100D440042D000F047FC001B0228F5D9032069E0DB
:100D54003B4A136C23F080531364DBE7394B0022C6
:100D64001A6600F037FC0546354B1B6813F0007F0C
:100D740006D000F02FFC401B0228F5D9032051E0D7
:100D8400E369226A1343626A43EA8213A26A52083D
:100D9400013A43EA0243E26A43EA0263284A53609F
:100DA400284B01221A6600F015FC0446244B1B68EC
:100DB40013F0007F06D100F00DFC001B0228F5D9CA
:100DC40003202FE000202DE000202BE0012B2BD06E
:100DD4001B4B5B6803F48001E269914226D103F066
:100DE4003F02216A8A4223D1616A47F6C0721A40DF
:100DF400B2EB811F1ED103F44031A26A5208013ABA
:100E0400B1EB024F18D103F07063E26AB3EB026FE7
:100E140014D1002006E001207047012002E00120E7
:100E240000E0002002B070BD0120FBE70120F9E7DB
:100E34000120F7E70120F5E70120F3E70120F1E7BE
:100E4400003802400000474208B5254B9B6803F078
:100E54000C03042B3FD0082B3FD1214B5A6802F0DE
:100E64003F025B6813F4800F12D01D4B5968C1F325
:100E740088111C480023A1FB0001FFF7A9F9184BB6
:100E84005B68C3F3014301335B00B0FBF3F025E07F
:100E9400134B5968C1F3881C4FEA4C11B1EB0C0099
:100EA4006EEB0E0E4FEA8E1343EA90638101091A2A
:100EB40063EB0E03DB0043EA5173C90011EB0C0C26
:100EC40043F10003990200234FEA8C2041EA9C512C
:100ED400FFF77EF9D3E7034800E0034808BD00BFED
:100EE4000038024040787D010024F400002800F01E
:100EF4009B8070B50D4604464F4B1B6803F00703F7
:100F04008B4208D2CBB24C4A1370136803F0070328
:100F14008B4240F08B80236813F0020F17D013F03C
:100F2400040F04D0454A936843F4E0539360236864
:100F340013F0080F04D0414A936843F4604393606C
:100F44003E4A936823F0F003A1680B43936023683F
:100F540013F0010F32D06368012B21D09A1E012AAD
:100F640025D9364A126812F0020F61D033498A68D3
:100F740022F0030213438B6000F02CFB06462F4B38
:100F84009B6803F00C036268B3EB820F16D000F089
:100F940021FB801B41F288339842F0D9032042E0C0
:100FA400264A126812F4003FE0D101203BE0234AB4
:100FB400126812F0007FD9D1012034E01E4B1B6867
:100FC40003F00703AB4207D9EAB21B4B1A701B6844
:100FD40003F00703AB422DD1236813F0040F06D0AE
:100FE400164A936823F4E053E1680B439360236843
:100FF40013F0080F07D0114A936823F46043216962
:1010040043EAC1039360FFF71FFF0C4B9B68C3F3D4
:1010140003130B4AD35CD8400A4B18600A4B186878
:10102400FFF724FC002070BD012070470120FAE77F
:101034000120F8E70120F6E7003C024000380240B6
:10104400D41F00082400002020000020014B186851
:10105400704700BF2400002008B5FFF7F7FF044BDA
:101064009B68C3F38223034AD35CD84008BD00BF06
:1010740000380240E41F000808B5FFF7E7FF044BFF
:101084009B68C3F34233034AD35CD84008BD00BF16
:1010940000380240E41F00080F2303600B4B9A68DA
:1010A40002F0030242609A6802F0F00282609A68D9
:1010B40002F4E052C2609B68DB0803F4E05303616E
:1010C400034B1B6803F007030B60704700380240B2
:1010D400003C024030B583B00446036813F0050FAA
:1010E4000ED1236813F0020F36D1236813F0080FD2
:1010F40000F09B80227C4E4BC3F8E021002095E059
:101104004C4B00229A6600F065FA05464A4B1B6870
:1011140013F0006F06D000F05DFA431B022BF5D9E3
:10112400032083E06268A3681B0743EA8213424AF0
:10113400C2F884303F4B01229A6600F04BFA054610
:101144003D4B1B6813F0006FCBD100F043FA401BFA
:101154000228F5D9032069E000230193364B1A6C69
:1011640042F080521A641B6C03F080530193019B7C
:10117400324A136843F48073136000F02BFA054677
:101184002E4B1B6813F4807F06D100F023FA431B17
:10119400022BF5D9032049E0274B1B6F13F440734E
:1011A40014D0E26802F440729A420FD0224B1A6FB4
:1011B40022F440721F490120C1F8400E0020C1F8FA
:1011C400400E1A671B6F13F0010F12D1E36803F48A
:1011D4004072B2F5407F1DD0174A936823F4F81388
:1011E400936015490B6FE268C2F30B0213430B675C
:1011F4007BE700F0EFF905460F4B1B6F13F0020F6E
:10120400E4D100F0E7F9401B41F288339842F3D966
:1012140003200BE008498A6822F4F81223F0704393
:1012240023F4407313438B60DBE7002003B030BD2D
:10123400001047420000474200380240007000405E
:1012440000230F2B00F2D28070B582B060E0856875
:101254005E000324B44025EA0405CC68B4402C4362
:101264008460456825EA02054C68C4F300129A407C
:101274002A4342605AE0DC08083450F8246003F042
:10128400070295000F22AA4026EA020E0A69AA4024
:1012940042EA0E0240F824205CE0042200E000222E
:1012A40002FA0EF22A430234514D45F82420514AE1
:1012B40094686FEA0C0224EA0C054E6816F4801F49
:1012C40001D04CEA04054B4CA560E46802EA04052D
:1012D4004E6816F4001F01D04CEA0405454CE56045
:1012E400646802EA04054E6816F4003F01D04CEA33
:1012F4000405404C6560246822404D6815F4803F25
:1013040001D04CEA04023B4C226001330F2B6BD812
:1013140001229A400C6804EA020C32EA0404F4D173
:101324004C6804F00304013C012C90D94A6802F093
:101334000302032A09D0C4685D000322AA4024EAF8
:1013440002048A68AA402243C2604A6802F0030287
:10135400022A90D004684FEA430E032202FA0EF2E6
:1013640024EA02044A6802F0030202FA0EF222435B
:1013740002604A6812F4403FC7D0002201921E4A1C
:10138400546C44F480445464526C02F480420192DC
:10139400019A9C08A51C164A52F8255003F0030232
:1013A4004FEA820E0F2202FA0EF225EA0205134AD0
:1013B40090423FF474AF02F5806290420ED002F581
:1013C400806290420CD002F5806290420AD002F50D
:1013D400806290423FF461AF072261E701225FE738
:1013E40002225DE703225BE702B070BD704700BFD5
:1013F40000380140003C0140003802400000024037
:101404000AB181617047090481617047436901EA47
:10141400030221EA030141EA02418161704770B588
:101424000446866D00F0D6F894F83530DBB2022B12
:1014340006D080236365002384F83430012070BD16
:1014440005462268136823F0160313602268536963
:1014540023F080035361236CE3B12268136823F003
:10146400080313602268136823F0010313602368E0
:101474001B6813F0010F11D000F0ACF8431B052BCF
:10148400F5D920236365032084F83500002384F80C
:101494003430D4E7A36C002BDFD1E3E7E26D3F23C4
:1014A4009340B360012384F83530002084F834007D
:1014B400C5E790F83530DBB2022B03D080234365B7
:1014C40001207047052380F835300268136823F043
:1014D4000103136000207047074AD36823F4E063D4
:1014E4001B041B0C000200F4E060034343F0BF63E1
:1014F40043F40033D360704700ED00E000B5194BAE
:10150400DB68C3F30223C3F1070CBCF1040F28BF4B
:101514004FF0040C03F1040EBEF1060F18D9033B7F
:101524004FF0FF3E0EFA0CFC21EA0C0199400EFA32
:1015340003F322EA0303194300280BDB0901C9B2B0
:1015440000F1604000F5614080F800135DF804FB91
:101554000023E5E700F00F000901C9B2024B19545A
:10156400F4E700BF00ED00E014ED00E0002807DB25
:1015740000F01F02400901239340024A42F8203040
:10158400704700BF00E100E008B50B4B1A6842F455
:1015940000721A601A6842F480621A601A6842F48F
:1015A40080721A600320FFF797FF0F20FFF75EF9A0
:1015B400FFF740F9002008BD003C0240034A1168CF
:1015C400034B1B780B441360704700BFF4000020EA
:1015D4001E000020014B1868704700BFF400002073
:1015E40038B50446FFF7F6FF0546B4F1FF3F02D0D5
:1015F400044B1B781C44FFF7EDFF401BA042FAD3B9
:1016040038BD00BF1E0000207047000090F83D3038
:10161400DBB2012B2FD1022380F83D300268D3685E
:1016240043F00103D3600368154A934218D0B3F121
:10163400804F15D0A2F57C42934211D002F580620E
:1016440093420DD002F58062934209D002F59A329A
:10165400934205D01A6842F001021A6000207047D4
:101664009A6802F00702062A07D01A6842F00102BB
:101674001A6000207047012070470020704700BFA7
:1016840000000140704770477047704770B50446CA
:101694000368DE681D6915F0020F10D016F0020F02
:1016A4000DD06FF002021A610123037703689B696E
:1016B40013F0030F5ED0FFF7E6FF0023237715F046
:1016C400040F12D016F0040F0FD023686FF0040239
:1016D4001A610223237723689B6913F4407F4FD058
:1016E4002046FFF7D0FF0023237715F0080F12D010
:1016F40016F0080F0FD023686FF008021A61042354
:1017040023772368DB6913F0030F40D02046FFF7EB
:10171400BAFF0023237715F0100F12D016F0100F24
:101724000FD023686FF010021A610823237723680F
:10173400DB6913F4407F31D02046FFF7A4FF002378
:10174400237715F0010F02D016F0010F2DD115F0FB
:10175400800F02D016F0800F2FD115F0400F02D069
:1017640016F0400F31D115F0200F02D016F0200FE3
:1017740033D170BDFFF786FF2046FFF785FF9CE756
:101784002046FFF77FFF2046FFF77EFFABE72046AA
:10179400FFF778FF2046FFF777FFBAE72046FFF709
:1017A40071FF2046FFF770FFC9E723686FF001025D
:1017B4001A612046FEF7A0FEC9E723686FF0800295
:1017C4001A61204600F095F8C7E723686FF04002DD
:1017D4001A612046FFF759FFC5E723686FF020021E
:1017E4001A61204600F084F8C3E700000368294A20
:1017F40090420ED0B0F1804F0BD0A2F57C429042C3
:1018040007D002F58062904203D002F580629042D4
:1018140003D123F070034A6813431E4A90421AD03E
:10182400B0F1804F17D0A2F57C42904213D002F55C
:10183400806290420FD002F5806290420BD002F594
:101844009A32904207D002F58062904203D002F5AA
:101854008062904203D123F44073CA68134323F097
:1018640080034A69134303608B68C3620B68836215
:10187400084B98420AD001234361036913F0010F16
:1018840003D0036923F00103036170470B69036309
:10189400F1E700BF0000014040B310B5044690F8E2
:1018A4003D30F3B1022384F83D30214651F8040B56
:1018B400FFF79CFF012384F8463084F83E3084F817
:1018C4003F3084F8403084F8413084F8423084F862
:1018D400433084F8443084F8453084F83D300020A7
:1018E40010BD80F83C30FFF78FFEDBE70120704726
:1018F40070477047026802F10C0353E8003F23F479
:1019040090730C3242E800310029F3D1026802F1ED
:10191400140353E8003F23F00103143242E800317A
:101924000029F3D1036B012B05D0202380F842302A
:10193400002303637047026802F10C0353E8003F7D
:1019440023F010030C3242E800310029F3D1ECE714
:1019540090F84130DBB2212B01D00220704783681C
:10196400B3F5805F17D0036A5A1C02621A780368C1
:101974005A60C38C9BB2013B9BB2C3844BB90268CF
:10198400D36823F08003D3600268D36843F0400334
:10199400D360002070470369002BE4D1036A1B88DD
:1019A4000268C3F308035360036A02330362E0E787
:1019B40038B504460268136923F44053C1680B43E5
:1019C400136183680269134342691343C2691A436A
:1019D4000168CB6823F4164323F00C031343CB6054
:1019E4000268536923F4407381690B4353610368AC
:1019F400314A934206D002F58062934202D0FFF747
:101A04002BFB01E0FFF738FBE369B3F5004F29D066
:101A14000021031849411B1841F10001C90041EAA2
:101A24005371DB00181863684FEA83024FEA93731B
:101A340041F10001FEF7CCFB204DA5FB003251091A
:101A4400642303FB11031B013233A5FB03235B094E
:101A540003F0F00202EB011203F00F0321681344B8
:101A64008B6038BD0023021843EB0301121841F1C7
:101A74000001C90041EA5271D200101841F100017D
:101A8400626892185B41FEF7A3FB0C4DA5FB003284
:101A94005109642303FB1103DB003233A5FB032349
:101AA4005B095A0002F4F87202EB011203F0070317
:101AB400216813448B60D4E7001001401F85EB516B
:101AC40060B310B5044690F8413013B3242384F86E
:101AD40041302268D36823F40053D3602046FFF7D3
:101AE40067FF2268136923F49043136122685369E2
:101AF40023F02A0353612268D36843F40053D3606C
:101B040000206064202384F8413084F8423060630C
:101B140010BD80F84030FEF735FED7E7012070474E
:101B240090F84130DBB2202B10D189B192B101621F
:101B34008284C28400234364212280F84120016806
:101B4400CA6842F08002CA60184670470220704793
:101B5400012070470120704708B50168CA6822F067
:101B64004002CA60202280F84120FEF7B3FC002026
:101B740008BD7047704708B5806B0023C385C384D4
:101B8400FFF7F8FF08BD704790F84230DBB2222B14
:101B940069D18368B3F5805F4FD0826AB3F5805F03
:101BA40004D0002B56D10369002B53D103685B6822
:101BB4001370836A01338362C38D9BB2013B9BB272
:101BC400C385002B51D100B583B00268D36823F0DC
:101BD4002003D3600268D36823F48073D36002685F
:101BE400536923F001035361202380F8423000231A
:101BF4004363036B012B33D100230363026802F1B7
:101C04000C0353E8003F23F010030C3242E8003188
:101C14000029F3D103681A6812F0100F06D00022CD
:101C240001921A6801925B680193019B818DFFF711
:101C3400AAFF002003B05DF804FB0269002AACD1BE
:101C4400826A03685B68C3F308031380836A023300
:101C54008362B1E703685B6803F07F031370A8E74E
:101C6400FFF787FFE5E70220704700207047000078
:101C740030B583B0044602681368D068516913F024
:101C84000F0505D113F0200F02D010F0200F19D149
:101C94002DB111F0010119D110F4907F16D1216BEF
:101CA40001297DD013F0800F03D010F0800F40F095
:101CB400198113F0400F03D010F0400F40F016814B
:101CC40003B030BD2046FFF75FFFF9E713F0010FC3
:101CD40006D010F4807F03D0626C42F0010262648B
:101CE40013F0040F04D019B1626C42F00202626472
:101CF40013F0020F04D019B1626C42F00402626462
:101D040013F0080F07D010F0200F00D119B1626C46
:101D140042F008026264626C002AD1D013F0200FF2
:101D240002D010F0200F29D123685B6903F040032F
:101D3400626C12F0080F00D163B32046FFF7DAFD9E
:101D440023685B6913F0400F20D0226802F114036A
:101D540053E8003F23F04003143242E800310029E5
:101D6400F3D1E36B73B1634A1A65E06BFFF7A1FB30
:101D74000028A5D0E06B036D9847A1E72046FFF744
:101D840003FFD1E72046FFF7F5FE99E72046FFF76A
:101D9400F1FE95E72046FFF7EDFE002363648FE72D
:101DA40013F0100F3FF47EAF10F0100F3FF47AAF32
:101DB400002301931368019353680193019B5369B2
:101DC40013F0400F52D0E26B13685B689BB2002B98
:101DD4003FF476AFA18D99427FF672AFE385D36964
:101DE400B3F5807F37D0226802F10C0353E8003F3B
:101DF40023F480730C3242E800310029F3D12268C5
:101E040002F1140353E8003F23F00103143242E8C3
:101E140000310029F3D1226802F1140353E8003F92
:101E240023F04003143242E800310029F3D1202387
:101E340084F8423000232363226802F10C0353E840
:101E4400003F23F010030C3242E800310029F3D1A3
:101E5400E06BFFF7E4FA02236363A18DE38D9BB289
:101E6400C91A89B22046FFF78EFE29E7A18DE38DBA
:101E74009BB2C91A89B2E38D9BB2002B3FF420AF09
:101E840000293FF41DAF226802F10C0353E8003F20
:101E940023F490730C3242E800300028F3D1226816
:101EA40002F1140353E8003F23F00103143242E823
:101EB40000300028F3D1202384F842300023236328
:101EC400226802F10C0353E8003F23F010030C32A4
:101ED40042E800300028F3D1022363632046FFF771
:101EE40052FEEDE62046FFF733FDE9E62046FFF714
:101EF40033FEE5E67B1B0008034AD2F8883043F43E
:101F04007003C2F88830704700ED00E0DFF834D089
:101F1400FFF7F2FF0C480D490D4A002302E0D458A4
:101F2400C4500433C4188C42F9D30A4A0A4C00231F
:101F340001E013600432A242FBD300F011F8FEF773
:101F440031FB7047008001200000002028000020A1
:101F5400FC1F000828000020F8000020FEE7000015
:101F640070B50D4D0D4C641BA4100026A64209D17A
:101F74000B4D0C4C00F020F8641BA4100026A64264
:101F840005D170BD55F8043B98470136EEE755F886
:101F9400043B98470136F2E7F41F0008F41F0008D9
:101FA400F41F0008F81F000802440346934200D1BE
:101FB400704703F8011BF9E7F8B500BFF8BC08BC8B
:101FC4009E467047F8B500BFF8BC08BC9E467047F3
:101FD40000000000000000000102030406070809D5
:081FE4000000000001020304EB
:081FEC0018E2FF7F0100000074
:041FF400B901000827
:041FF8009501000847
:101FFC0048656C6C6F2C205541525420496E7465A9
:10200C007272757074204D6F6465210D0A000100A9
:08201C00100000000024F40094
:0400000508001F11BF
:00000001FF
